:020000040800F2
:1000000000000220912D0008012D0008032D00089A
:10001000052D0008072D0008092D0008000000002C
:100020000000000000000000000000000B2D000890
:100030000D2D0008000000000F2D0008112D0008F4
:10004000E12D0008E12D0008E12D0008E12D000858
:10005000E12D0008E12D0008E12D0008E12D000848
:10006000E12D0008E12D0008E12D0008E12D000838
:10007000E12D0008E12D0008E12D0008E12D000828
:10008000E12D0008E12D0008E12D0008000000002E
:10009000000000000000000000000000E12D00084A
:1000A000E12D00081D2D00082D2D0008E12D000870
:1000B000E12D0008E12D0008E12D0008E12D0008E8
:1000C000E12D0008E12D0008E12D0008E12D0008D8
:1000D000E12D0008E12D0008E12D000800000000DE
:1000E000E12D0008E12D0008E12D000800000000CE
:1000F000000000000000000000000000E12D0008EA
:1001000000000000E12D0008E12D0008E12D0008AD
:1001100000000000000000000000000000000000DF
:10012000E12D0008E12D0008E12D0008E12D000877
:10013000E12D0008000000000000000000000000A9
:10014000000000000000000000000000E12D000899
:10015000E12D0008E12D0008E12D0008E12D000847
:10016000E12D0008E12D0008000000000000000063
:10017000000000000000000000000000000000007F
:1001800000000000E12D0008000000000000000059
:08019000E12D0008E12D00083B
:1001A00010B5054C237833B9044B13B10448AFF3B1
:1001B00000800123237010BDDC010020000000003E
:1001C0008456000808B5034B1BB103490348AFF33D
:1001D000008008BD00000000E001002084560008F7
:1001E00081F0004102E000BF83F0004330B54FEAE8
:1001F00041044FEA430594EA050F08BF90EA020F55
:100200001FBF54EA000C55EA020C7FEA645C7FEAE7
:10021000655C00F0E2804FEA5454D4EB5555B8BF0A
:100220006D420CDD2C4480EA020281EA030382EA7B
:10023000000083EA010180EA020281EA0303362D0D
:1002400088BF30BD11F0004F4FEA01314FF4801CE0
:100250004CEA113102D0404261EB410113F0004FF2
:100260004FEA03334CEA133302D0524263EB4303A9
:1002700094EA050F00F0A780A4F10104D5F1200E47
:100280000DDB02FA0EFC22FA05F2801841F10001A2
:1002900003FA0EF2801843FA05F359410EE0A5F176
:1002A00020050EF1200E012A03FA0EFC28BF4CF0A7
:1002B000020C43FA05F3C01851EBE37101F000455D
:1002C00007D54FF0000EDCF1000C7EEB00006EEB6A
:1002D0000101B1F5801F1BD3B1F5001F0CD34908F4
:1002E0005FEA30004FEA3C0C04F101044FEA44524B
:1002F00012F5800F80F09A80BCF1004F08BF5FEAD2
:10030000500C50F1000041EB045141EA050130BDB1
:100310005FEA4C0C404141EB010111F4801FA4F154
:100320000104E9D191F0000F04BF01460020B1FAA9
:1003300081F308BF2033A3F10B03B3F120020CDAE1
:100340000C3208DD02F1140CC2F10C0201FA0CF0BF
:1003500021FA02F10CE002F11402D8BFC2F1200C24
:1003600001FA02F120FA0CFCDCBF41EA0C019040DA
:10037000E41AA2BF01EB0451294330BD6FEA040423
:100380001F3C1CDA0C340EDC04F11404C4F120020E
:1003900020FA04F001FA02F340EA030021FA04F320
:1003A00045EA030130BDC4F10C04C4F1200220FA77
:1003B00002F001FA04F340EA0300294630BD21FAB5
:1003C00004F0294630BD94F0000F83F4801306BF7B
:1003D00081F480110134013D4EE77FEA645C18BF6F
:1003E0007FEA655C29D094EA050F08BF90EA020F06
:1003F00005D054EA000C04BF1946104630BD91EAFE
:10040000030F1EBF0021002030BD5FEA545C05D100
:100410004000494128BF41F0004130BD14F580043F
:100420003CBF01F5801130BD01F0004545F0FE41B3
:1004300041F470014FF0000030BD7FEA645C1ABFE8
:10044000194610467FEA655C1CBF0B46024650EA1F
:10045000013406BF52EA033591EA030F41F400214B
:1004600030BD00BF90F0000F04BF0021704730B5D1
:100470004FF4806404F132044FF000054FF00001A6
:1004800050E700BF90F0000F04BF0021704730B567
:100490004FF4806404F1320410F0004548BF40423C
:1004A0004FF000013EE700BF42004FEAE2014FEA91
:1004B00031014FEA02701FBF12F07F4393F07F4F6C
:1004C00081F06051704732F07F4208BF704793F06F
:1004D0007F4F04BF41F40021704730B54FF4607482
:1004E00001F0004521F000411CE700BF50EA010285
:1004F00008BF704730B54FF000050AE050EA01022E
:1005000008BF704730B511F0004502D5404261EB9D
:1005100041014FF4806404F132045FEA915C3FF4DE
:10052000D8AE4FF003025FEADC0C18BF03325FEA7B
:10053000DC0C18BF033202EBDC02C2F1200300FA2C
:1005400003FC20FA02F001FA03FE40EA0E0021FA51
:1005500002F11444BDE600BF70B54FF0FF0C4CF43F
:10056000E06C1CEA11541DBF1CEA135594EA0C0FF1
:1005700095EA0C0F00F0DEF82C4481EA030621EA2C
:100580004C5123EA4C5350EA013518BF52EA033567
:1005900041F4801143F4801338D0A0FB02CE4FF019
:1005A0000005E1FB02E506F00042E0FB03E54FF049
:1005B0000006E1FB03569CF0000F18BF4EF0010E41
:1005C000A4F1FF04B6F5007F64F5407404D25FEA3D
:1005D0004E0E6D4146EB060642EAC62141EA5551F0
:1005E0004FEAC52040EA5E504FEACE2EB4F1FD0C32
:1005F00088BFBCF5E06F1ED8BEF1004F08BF5FEAB0
:10060000500E50F1000041EB045170BD06F0004661
:1006100046EA010140EA020081EA0301B4EB5C040E
:10062000C2BFD4EB0C0541EA045170BD41F4801106
:100630004FF0000E013C00F3AB8014F1360FDEBF2B
:10064000002001F0004170BDC4F10004203C35DA07
:100650000C341BDC04F11404C4F1200500FA05F38A
:1006600020FA04F001FA05F240EA020001F000422B
:1006700021F0004110EBD37021FA04F642EB0601A1
:100680005EEA430E08BF20EAD37070BDC4F10C04CB
:10069000C4F1200500FA04F320FA05F001FA04F28F
:1006A00040EA020001F0004110EBD37041F100017B
:1006B0005EEA430E08BF20EAD37070BDC4F1200586
:1006C00000FA05F24EEA020E20FA04F301FA05F2EE
:1006D00043EA020321FA04F001F0004121FA04F296
:1006E00020EA020000EBD3705EEA430E08BF20EA66
:1006F000D37070BD94F0000F0FD101F000464000A0
:1007000041EB010111F4801F08BF013CF7D041EA21
:10071000060195F0000F18BF704703F00046520025
:1007200043EB030313F4801F08BF013DF7D043EAF6
:100730000603704794EA0C0F0CEA135518BF95EAAC
:100740000C0F0CD050EA410618BF52EA4306D1D133
:1007500081EA030101F000414FF0000070BD50EA52
:10076000410606BF1046194652EA430619D094EADC
:100770000C0F02D150EA013613D195EA0C0F05D1C6
:1007800052EA03361CBF104619460AD181EA03011A
:1007900001F0004141F0FE4141F470014FF00000D2
:1007A00070BD41F0FE4141F4780170BD70B54FF06D
:1007B000FF0C4CF4E06C1CEA11541DBF1CEA1355ED
:1007C00094EA0C0F95EA0C0F00F0A7F8A4EB0504CF
:1007D00081EA030E52EA03354FEA013100F08880C6
:1007E0004FEA03334FF0805545EA131343EA12638F
:1007F0004FEA022245EA111545EA10654FEA002644
:100800000EF000419D4208BF964244F1FD0404F5FC
:10081000407402D25B084FEA3202B61A65EB030558
:100820005B084FEA32024FF480104FF4002CB6EB15
:10083000020E75EB030E22BFB61A754640EA0C0095
:100840005B084FEA3202B6EB020E75EB030E22BFD5
:10085000B61A754640EA5C005B084FEA3202B6EB16
:10086000020E75EB030E22BFB61A754640EA9C00D5
:100870005B084FEA3202B6EB020E75EB030E22BFA5
:10088000B61A754640EADC0055EA060E18D04FEA63
:10089000051545EA16754FEA06164FEAC30343EA03
:1008A00052734FEAC2025FEA1C1CC0D111F4801FD0
:1008B0000BD141EA00014FF000004FF0004CB6E7C9
:1008C00011F4801F04BF01430020B4F1FD0C88BF68
:1008D000BCF5E06F3FF6AFAEB5EB030C04BFB6EB73
:1008E000020C5FEA500C50F1000041EB045170BD66
:1008F0000EF0004E4EEA113114EB5C04C2BFD4EB93
:100900000C0541EA045170BD41F480114FF0000E16
:10091000013C90E645EA060E8DE60CEA135594EA92
:100920000C0F08BF95EA0C0F3FF43BAF94EA0C0F95
:100930000AD150EA01347FF434AF95EA0C0F7FF40A
:1009400025AF104619462CE795EA0C0F06D152EA5E
:1009500003353FF4FDAE1046194622E750EA410642
:1009600018BF52EA43067FF4C5AE50EA41047FF453
:100970000DAF52EA43057FF4EBAE12E74FF0FF3CB8
:1009800006E000BF4FF0010C02E000BF4FF0010C89
:100990004DF804CD4FEA410C7FEA6C5C4FEA430C02
:1009A00018BF7FEA6C5C1BD001B050EA410C0CBF51
:1009B00052EA430C91EA030F02BF90EA020F0020B3
:1009C000704710F1000F91EA030F58BF994208BF1A
:1009D00090422CBFD8176FEAE37040F001007047D7
:1009E0004FEA410C7FEA6C5C02D150EA013C07D12E
:1009F0004FEA430C7FEA6C5CD6D152EA033CD3D079
:100A00005DF8040B704700BF8446104662468C4672
:100A10001946634600E000BF01B5FFF7B7FF0028A5
:100A200048BF10F1000F01BD4DF808EDFFF7F4FFCE
:100A30000CBF012000205DF808FB00BF4DF808ED59
:100A4000FFF7EAFF34BF012000205DF808FB00BF7C
:100A50004DF808EDFFF7E0FF94BF012000205DF89E
:100A600008FB00BF4DF808EDFFF7CEFF94BF012053
:100A700000205DF808FB00BF4DF808EDFFF7C4FF4C
:100A800034BF012000205DF808FB00BF4FEA41029F
:100A900012F5001215D211D56FF47873B3EB6252D0
:100AA00012D94FEAC12343F0004343EA505311F0F7
:100AB000004F23FA02F018BF404270474FF0000089
:100AC000704750EA013005D111F0004008BF6FF0C7
:100AD000004070474FF00000704700BF4A0011D23D
:100AE00012F5001211D20DD56FF47873B3EB625288
:100AF0000ED44FEAC12343F0004343EA505323FA94
:100B000002F070474FF00000704750EA013002D108
:100B10004FF0FF3070474FF0000070474FEA41023E
:100B2000B2F1E04324BFB3F5001CDCF1FE5C0DD94B
:100B300001F0004C4FEAC0024CEA5070B2F1004F95
:100B400040EB830008BF20F00100704711F0804F98
:100B500021D113F13872BCBF01F00040704741F45D
:100B600080114FEA5252C2F11802C2F1200C10FA61
:100B70000CF320FA02F018BF40F001004FEAC12345
:100B80004FEAD32303FA0CFC40EA0C0023FA02F3E9
:100B90004FEA4303CCE77FEA625307D150EA0133BF
:100BA0001EBF4FF0FE4040F44000704701F000408F
:100BB00040F0FE4040F40000704700BF53B94AB90E
:100BC000002908BF00281CBF4FF0FF314FF0FF3055
:100BD00000F072B9ADF1080C6DE904CE00F006F832
:100BE000DDF804E0DDE9022304B070472DE9F047A9
:100BF000089E04468846002B4BD18A42154667D989
:100C0000B2FA82F24AB1C2F1200701FA02F320FAE5
:100C100007F7954047EA030894404FEA154E230C26
:100C2000B8FBFEF71FFA85FC0EFB178843EA084362
:100C300007FB0CF1994209D9EB1807F1FF3080F05E
:100C40001B81994240F21881023F2B445B1AA4B2E7
:100C5000B3FBFEF00EFB103344EA034400FB0CFC34
:100C6000A44509D92C1900F1FF3380F00781A44570
:100C700040F2048102382C4440EA0740A4EB0C0403
:100C800000271EB1D4400023C6E900433946BDE821
:100C9000F0878B4209D9002E00F0EB800027C6E9CF
:100CA000000138463946BDE8F087B3FA83F7002FD4
:100CB00047D18B4202D3824200F2FA80841A61EB60
:100CC000030301209846002EE0D0C6E90048DDE786
:100CD00002B9FFDEB2FA82F2002A40F08F80491B8F
:100CE0004FEA154E1FFA85F80127B1FBFEFC230CD5
:100CF0000EFB1C1143EA014308FB0CF1994207D992
:100D0000EB180CF1FF3002D2994200F2CD808446FC
:100D1000591AA3B2B1FBFEF00EFB101443EA0444CF
:100D200008FB00F8A04507D92C1900F1FF3302D2C7
:100D3000A04500F2B6801846A4EB080440EA0C4037
:100D40009FE7C7F1200CBB4022FA0CFE4EEA030ECF
:100D500001FA07F420FA0CF521FA0CF34FEA1E48C9
:100D60002543B3FBF8F92C0C08FB19331FFA8EFA54
:100D700044EA034309FB0AF49C4202FA07F200FA30
:100D800007F10BD91EEB030309F1FF3080F08780D8
:100D90009C4240F28480A9F1020973441B1BADB24E
:100DA000B3FBF8F008FB103345EA034400FB0AFAF2
:100DB000A24508D91EEB040400F1FF336BD2A24513
:100DC00069D90238744440EA0940A0FB0289A4EBC7
:100DD0000A044C45C2464B4654D351D0002E69D02C
:100DE000B1EB0A0564EB030404FA0CFCFD40FC4083
:100DF0004CEA0505C6E90054002747E7C2F1200385
:100E000020FA03F7954001FA02F021FA03F34FEAC2
:100E1000154E3843010CB3FBFEF71FFA85F80EFBA5
:100E2000173341EA034107FB08F38B4204FA02F44B
:100E300007D9691807F1FF3C2FD28B422DD9023F09
:100E40002944CB1A81B2B3FBFEF00EFB103341EA0A
:100E5000034100FB08F38B4207D9691800F1FF3CFE
:100E600017D28B4215D902382944C91A40EA0747DC
:100E70003BE73746304609E70746E7E61846FBE614
:100E80004145ABD2B8EB020A69EB0E0201381346BA
:100E9000A4E76046E9E7184695E76746D1E781464B
:100EA0007CE702382C4447E7ACF1020C2B442FE7D7
:100EB000384608E73746E9E6704700BF0000000003
:100EC00001F0FF01102A2BDB10F0070F08D010F8FB
:100ED000013B013A8B422DD010F0070F42B3F6D1FF
:100EE000F0B441EA012141EA014122F007047FF018
:100EF00000070023F0E80256083C85EA010586EA6F
:100F0000010685FA47F5A3FA87F586FA47F6A5FAAA
:100F100087F68EB9EED1F0BC01F0FF0102F00702B6
:100F200032B110F8013B013A83EA010313B1F8D161
:100F30000020704701387047002D06BF3546033842
:100F4000073815F0010F07D1013015F4807F02BF7B
:100F5000013015F4C03F0130F0BC0138704700BFCC
:100F600010B504460E4B18784FF47A73B3FBF0F3C8
:100F70000C4A1068B0FBF3F000F0A8F868B90F2C29
:100F800001D901200AE0002221464FF0FF3000F095
:100F90005DF8034B5C60002000E0012010BD00BF45
:100FA000000000200800002008B50B4B1A6842F42E
:100FB00000721A601A6842F480621A601A6842F479
:100FC00080721A60032000F02FF80020FFF7C8FF9E
:100FD00001F0C4FD002008BD003C0240034A116836
:100FE000034B1B780B441360704700BF9003002035
:100FF00000000020014B1868704700BF90030020DC
:1010000038B50446FFF7F6FF0546B4F1FF3F02D0BE
:10101000044B1B781C44FFF7EDFF401BA042FAD3A2
:1010200038BD00BF00000020074AD36823F4E06306
:101030001B041B0C000200F4E060184340F0BF608A
:1010400040F40030D060704700ED00E030B4174B42
:10105000DB68C3F30223C3F10704042C28BF042474
:101060001D1D062D18D9033B4FF0FF3505FA04F47A
:1010700021EA0401994005FA03F322EA0303194324
:1010800000280BDB0901C9B200F1604000F56140A6
:1010900080F8001330BC70470023E5E700F00F0034
:1010A0000901C9B2024B1954F4E700BF00ED00E09A
:1010B00014ED00E000F01F02400901239340024AB2
:1010C00042F82030704700BF00E100E00138B0F185
:1010D000807F0AD2064B5860064AF02182F823101E
:1010E0000020986007221A6070470120704700BFF7
:1010F00010E000E000ED00E0042805D0054A136888
:1011000023F0040313607047024A136843F004039A
:101110001360704710E000E0704708B5FFF7FCFF70
:1011200008BD000000230F2B00F2C580F0B482B090
:1011300039E0042200E00022B2403A4302345E4E1D
:1011400046F824205D4A1468EA4302EA04064F6820
:1011500017F4803F01D045EA0406584C26606468C5
:1011600002EA04064F6817F4003F01D045EA04067E
:10117000524C6660A46802EA04064F6817F4801FA8
:1011800001D045EA04064D4CA660E46822404E6852
:1011900016F4001F01D045EA0402484CE260013316
:1011A0000F2B00F2858001229A400C6804EA0205A8
:1011B000AA42F4D14C68022C01D0122C10D1DE08C6
:1011C000083650F826C003F00704A7000F24BC40DF
:1011D0002CEA040C0C69BC4044EA0C0440F826409C
:1011E00004685F000326BE40F64306EA040C4C6820
:1011F00004F00304BC4044EA0C0404604C6804F1AD
:10120000FF3CBCF1010F03D9112C01D0122C10D1DD
:10121000846806EA040CCC68BC4044EA0C04846090
:10122000446824EA02024C68C4F300149C4014434E
:101230004460C26816408A68BA403243C2604A6855
:1012400012F0805FABD0002201921D4A546C44F42E
:1012500080445464526C02F480420192019A9C08CA
:10126000A61C154A52F8267003F0030296000F22BE
:10127000B24027EA0207134A90423FF45CAF02F5FE
:10128000806290420ED002F5806290420CD002F54E
:10129000806290420AD002F5806290423FF449AFEA
:1012A000072249E7012247E7022245E7032243E7F5
:1012B00002B0F0BC7047704700380140003C01406C
:1012C000003802400000024012B9090481617047F1
:1012D00081617047002800F0BB8170B582B0044680
:1012E000036813F0010F3BD0A74B9B6803F00C037E
:1012F000042B2CD0A44B9B6803F00C03082B21D0AB
:101300006368B3F5803F4FD0B3F5A02F52D09E4B0A
:101310001A6822F480321A601A6822F480221A6055
:101320006368002B50D0FFF765FE0546964B1B689F
:1013300013F4003F14D1FFF75DFE401B6428F5D97C
:1013400003208AE1904B5B6813F4800FD8D08E4B5A
:101350001B6813F4003F03D06368002B00F07A8110
:10136000236813F0020F55D0874B9B6813F00C0FC6
:101370003ED0854B9B6803F00C03082B33D0E36809
:10138000002B68D0814B01221A60FFF733FE05461F
:101390007D4B1B6813F0020F54D1FFF72BFE401B4F
:1013A0000228F5D9032058E1774A136843F48033C3
:1013B0001360B5E7744B1A6842F480221A601A6809
:1013C00042F480321A60ABE7FFF714FE05466E4B1D
:1013D0001B6813F4003FC3D0FFF70CFE401B6428CA
:1013E000F5D9032039E1684B5B6813F4800FC6D14F
:1013F000654B1B6813F0020F04D0E368012B01D08A
:1014000001202AE1604A136823F0F803216943EAC6
:10141000C1031360236813F0080F40D0636963B3FE
:101420005B4B01221A60FFF7E5FD0546564B5B6FEB
:1014300013F0020F33D1FFF7DDFD401B0228F5D971
:1014400003200AE1504A136823F0F803216943EAB4
:10145000C1031360DEE74D4B00221A60FFF7CAFD9F
:101460000546494B1B6813F0020FD3D0FFF7C2FDAE
:10147000401B0228F5D90320EFE0454B00221A60FB
:10148000FFF7B8FD0546404B5B6F13F0020F06D027
:10149000FFF7B0FD401B0228F5D90320DDE02368EB
:1014A00013F0040F79D0384B1B6C13F0805F33D1ED
:1014B00000230193344B1A6C42F080521A641B6C67
:1014C00003F080530193019B0125324B1B6813F4F9
:1014D000807F23D0A368012B34D0052B38D02A4B32
:1014E0001A6F22F001021A671A6F22F004021A67BB
:1014F000A368002B36D0FFF77DFD0646224B1B6FFD
:1015000013F0020F48D1FFF775FD801B41F28833BD
:101510009842F3D90320A0E00025D6E71D4A1368BE
:1015200043F480731360FFF765FD0646194B1B6893
:1015300013F4807FCED1FFF75DFD801B0228F5D923
:1015400003208AE0104A136F43F001031367CFE7CB
:101550000D4B1A6F42F004021A671A6F42F0010233
:101560001A67C5E7FFF746FD0646074B1B6F13F0EA
:10157000020F11D0FFF73EFD801B41F288339842E5
:10158000F3D9032069E000BF003802400000474261
:10159000800E474200700040E5B9A369002B5BD084
:1015A000304A926802F00C02082A58D0022B17D059
:1015B0002D4B00221A60FFF71DFD0446294B1B68C6
:1015C00013F0007F42D0FFF715FD001B0228F5D96C
:1015D000032042E0234A136C23F080531364DCE7BA
:1015E000214B00221A60FFF705FD05461D4B1B68C5
:1015F00013F0007F06D0FFF7FDFC401B0228F5D951
:1016000003202AE0E369226A1343626A43EA8213F1
:10161000A26A5208013A43EA0243E26A43EA0263D9
:10162000104A5360104B01221A60FFF7E3FC044696
:101630000C4B1B6813F0007F06D1FFF7DBFC001B8F
:101640000228F5D9032008E0002006E0002004E08D
:1016500001207047012000E0002002B070BD012091
:10166000FBE700BF0038024060004742264B9B6802
:1016700003F00C03042B44D0082B01D023487047FF
:101680002DE9F04B204B5A6802F03F025B6813F4DF
:10169000800F13D01C4B5968C1F3881100231C48DC
:1016A000A1FB0001FFF78AFA174B5B68C3F3014304
:1016B00001335B00B0FBF3F0BDE8F08B124B5B68CD
:1016C000C3F388131E4600275C010025E41A65EB6E
:1016D0000705A90141EA9461A001001B61EB050126
:1016E000CB0043EA5073C400A01943EB07018B02FF
:1016F00043EA90538402204619460023FFF75EFA1E
:10170000D2E70348704700BF003802400024F400CD
:1017100040787D01002800F09D8070B504464F4B55
:101720001B6803F00F038B4209D2CBB24B4A1370F4
:10173000136803F00F038B4201D0012070BD2368B2
:1017400013F0020F17D013F0040F04D0444A93682B
:1017500043F4E0539360236813F0080F04D0404A29
:10176000936843F4604393603D4A936823F0F00329
:10177000A068034393600D46236813F0010F32D035
:101780006368012B21D09A1E012A25D9344A126898
:1017900012F0020F60D032498A6822F0030213432C
:1017A0008B60FFF727FC06462D4B9B6803F00C036C
:1017B0006268B3EB820F16D0FFF71CFC801B41F26E
:1017C00088339842F0D90320B8E7254A126812F40A
:1017D000003FE0D10120B1E7214A126812F0007FFA
:1017E000D9D10120AAE71D4B1B6803F00F03AB42C0
:1017F00009D9EAB2194B1A701B6803F00F03AB4208
:1018000001D001209AE7236813F0040F06D0144A90
:10181000936823F4E053E1680B439360236813F06B
:10182000080F07D00E4A936823F46043216943EA06
:10183000C1039360FFF71AFF094B9B68C3F30313BF
:10184000084AD35CD840084B18600020FFF788FB9B
:10185000002073E70120704701206FE7003C024041
:1018600000380240A056000808000020014B18680C
:10187000704700BF0800002008B5FFF7F7FF044BD2
:101880009B68C3F38223034AD35CD84008BD00BFE2
:1018900000380240B056000808B5FFF7E7FF044BD8
:1018A0009B68C3F34233034AD35CD84008BD00BFF2
:1018B00000380240B056000870B4036A23F00103F8
:1018C0000362036A4268846924F073040D6845EA80
:1018D000040623F002048B6823430B4DA84206D074
:1018E000426086614A684263036270BC704723F0BD
:1018F0000803CC68234323F0040322F440724C69AC
:1019000014438A692243EBE70000014030B4036AC4
:1019100023F480730362036A4268C46924F0730489
:101920000D682C4323F400738D6843EA05230D4DA5
:10193000A84206D04260C4614A68C263036230BCF8
:10194000704723F40063CD6843EA052323F48063E2
:1019500022F440524D6942EA05128D6942EA0512AD
:10196000E8E700BF0000014030B4036A23F480536D
:101970000362036A4468C26922F4E6420D6842EADF
:10198000052223F400538D6843EA0533074DA8422E
:1019900006D04460C2614A680264036230BC70478A
:1019A00024F480444D6944EA8514F2E700000140C4
:1019B00010B4036A046A24F001040462846924F008
:1019C000F00444EA021223F00A030B43826103622B
:1019D0005DF8044B704710B4036A23F010030362F0
:1019E0008469036A24F4704444EA023223F0A003B9
:1019F00043EA0113826103625DF8044B7047836818
:101A000023F0700341F0070119438160704710B45F
:101A1000846824F47F4442EA03230B432343836016
:101A20005DF8044B70470268D36843F00103D3604C
:101A30000268136843F00103136000207047704789
:101A400090F83830012B7DD010B50446012380F882
:101A50003830022380F839300268936823F47F43DA
:101A600023F0770393600B68402B57D010D9702B6D
:101A70003ED01FD8502B47D0602B32D1CA6849685E
:101A80000068FFF7A8FF60212068FFF7B8FF28E093
:101A9000102B4DD008D9202B4FD0302B21D1302105
:101AA0000068FFF7ACFF1CE0DBB900210068FFF71E
:101AB000A6FF16E0B3F5805F0ED0B3F5005F10D13E
:101AC000CB684A6889680068FFF7A1FF22689368BD
:101AD00043F48043936004E00268936823F00703B3
:101AE0009360012384F83930002084F8380010BD59
:101AF000CB684A6889680068FFF789FF22689368A5
:101B000043F077039360ECE7CA6849680068FFF721
:101B10004FFF50212068FFF772FFE2E7CA6849686B
:101B20000068FFF745FF40212068FFF768FFD8E70E
:101B300010210068FFF763FFD3E720210068FFF75B
:101B40005EFFCEE7022070477047704770477047CE
:101B500010B5044603681A6912F0020F11D0DA6852
:101B600012F0020F0DD06FF002021A61012303760A
:101B700003689B6913F0030F70D0FFF7E6FF0023A3
:101B8000237623681A6912F0040F12D0DA6812F073
:101B9000040F0ED06FF004021A610223237623682B
:101BA0009B6913F4407F5FD02046FFF7CEFF0023F0
:101BB000237623681A6912F0080F12D0DA6812F03F
:101BC000080F0ED06FF008021A61042323762368F1
:101BD000DB6913F0030F4ED02046FFF7B6FF00235A
:101BE000237623681A6912F0100F12D0DA6812F007
:101BF000100F0ED06FF010021A61082323762368AD
:101C0000DB6913F4407F3DD02046FFF79EFF0023A1
:101C1000237623681A6912F0010F03D0DA6812F0F4
:101C2000010F36D123681A6912F0800F03D0DA68E9
:101C300012F0800F34D123681A6912F0400F03D0DC
:101C4000DA6812F0400F32D123681A6912F0200FBF
:101C500003D0DA6812F0200F30D110BDFFF774FF07
:101C60002046FFF773FF8AE72046FFF76DFF204607
:101C7000FFF76CFF9BE72046FFF766FF2046FFF764
:101C800065FFACE72046FFF75FFF2046FFF75EFFEA
:101C9000BDE76FF001021A61204600F073FDC1E755
:101CA0006FF080021A61204600F0E9F9C3E76FF097
:101CB00040021A612046FFF74AFFC5E76FF0200295
:101CC0001A61204600F0DAF9C7E700000368234AEA
:101CD00090420ED0B0F1804F0BD0A2F57C429042E2
:101CE00007D002F58062904203D002F580629042F4
:101CF00003D123F070034A681343184A90421AD064
:101D0000B0F1804F17D0A2F57C42904213D002F57B
:101D1000806290420FD002F5806290420BD002F5B3
:101D20009A32904207D002F58062904203D002F5C9
:101D30008062904203D123F44073CA681343036066
:101D40008B68C3620B688362044B984202D0012304
:101D5000436170470B690363F9E700BF000001406E
:101D6000A8B110B5044690F839305BB1022384F86D
:101D70003930211D2068FFF7A9FF012384F839308D
:101D8000002010BD80F8383000F032FFEEE701206F
:101D90007047A8B110B5044690F839305BB1022302
:101DA00084F83930211D2068FFF790FF012384F863
:101DB0003930002010BD80F83830FFF740FEEEE7E4
:101DC0000120704730B4036A23F010030362036AF2
:101DD0004468826922F4E6420D6842EA052223F053
:101DE00020038D6843EA05130C4DA84206D04460D9
:101DF00082614A688263036230BC704723F08003CB
:101E0000CD6843EA051323F0400324F440644D6990
:101E100044EA85048D6944EA8504E8E7000001404E
:101E200038B590F83830012B66D00D4604460123B2
:101E300080F83830022380F839300C2A1AD8DFE8CD
:101E400002F007191919201919193419191947001D
:101E50000068FFF731FD2268936943F0080393613E
:101E60002268936923F004039361226893692969C6
:101E70000B439361012384F83930002084F8380043
:101E800038BD0068FFF79EFF2268936943F4006342
:101E900093612268936923F4806393612268936954
:101EA000296943EA01239361E4E70068FFF72EFD07
:101EB0002268D36943F00803D3612268D36923F011
:101EC0000403D3612268D36929690B43D361D1E745
:101ED0000068FFF749FD2268D36943F40063D361CA
:101EE0002268D36923F48063D3612268D3692969A6
:101EF00043EA0123D361BDE70220C1E710B4012307
:101F000003FA01F4036A23EA04030362036A8A40C2
:101F1000134303625DF8044B7047000010B504469C
:101F20000C290DD8DFE801F0070C0C0C1B0C0C0C75
:101F3000210C0C0C27000268D36843F00203D36025
:101F400001222068FFF7DAFF2368104A934218D075
:101F50002268136843F001031360002010BD02687B
:101F6000D36843F00403D360EAE70268D36843F020
:101F70000803D360E4E70268D36843F01003D3603A
:101F8000DEE75A6C42F400425A64E1E70000014087
:101F900010B4042303FA01F4036A23EA040303627E
:101FA000036A8A40134303625DF8044B704710B51F
:101FB000044604220068FFF7EBFF2268536C43F4E9
:101FC000004353642268136843F001031360002048
:101FD00010BD90F83830012B22D030B4012280F8A7
:101FE0003820022380F839300468636823F07003D6
:101FF0006360046863680D682B4363600468A368CA
:1020000023F08003A3600468A36849680B43A360BE
:1020100080F83920002380F83830184630BC7047EB
:102020000220704790F83830012B25D0012380F82A
:102030003830CB6823F440738A68134323F48063F9
:102040004A68134323F400630A68134323F480535C
:102050000A69134323F400534A69134323F480436A
:102060008A69134323F40043134302685364002333
:1020700080F8383018467047022070477047704724
:102080002DE9F843044601680A6922F44052C36806
:1020900013430B610168CA6822F4164222F00C0255
:1020A00083680069034360690343E06903431343A2
:1020B000CB6021684A6922F44072A36913434B61E3
:1020C000E369B3F5004F60D02368B84A934200F04B
:1020D000148102F58062934200F00F81FFF7CCFB80
:1020E00000EB800000EB80006568AD00B0FBF5F50B
:1020F000AF4FA7FB05356D092E01FFF7BDFB00EBC8
:10210000800000EB80006568AD00B0FBF5F9FFF7DB
:10211000B3FB00EB800000EB80006568AD00B0FB16
:10212000F5F5A7FB05356D094FF0640808FB15951B
:102130002D013235A7FB05356D0905F0F005354455
:10214000FFF79AFB00EB800000EB80006668B600AA
:10215000B0FBF6F6FFF790FB00EB800000EB800091
:1021600063689B00B0FBF3F0A7FB0030400908FB5D
:1021700010684FEA081808F13208A7FB0837C7F3C0
:10218000431723682F449F600DE12368874A9342D9
:102190005BD002F58062934257D0FFF76DFB00EBF6
:1021A000800000EB800065686D00B0FBF5F5804FA6
:1021B000A7FB05356D092E01FFF75EFB00EB8000E4
:1021C00000EB800065686D00B0FBF5F9FFF754FB8C
:1021D00000EB800000EB800065686D00B0FBF5F55A
:1021E000A7FB05356D094FF0640808FB1595ED0058
:1021F0003235A7FB05356D096D0005F4F8753544DA
:10220000FFF73AFB00EB800000EB80006668760089
:10221000B0FBF6F6FFF730FB00EB800000EB800030
:1022200063685B00B0FBF3F3A7FB03235B0908FBC8
:1022300013684FEAC80808F13208A7FB0837C7F34C
:10224000421723682F449F60ADE0FFF725FB00EBAA
:10225000800000EB800065686D00B0FBF5F5544F21
:10226000A7FB05356D092E01FFF716FB00EB80007B
:1022700000EB800065686D00B0FBF5F9FFF70CFB23
:1022800000EB800000EB800065686D00B0FBF5F5A9
:10229000A7FB05356D094FF0640808FB1595ED00A7
:1022A0003235A7FB05356D096D0005F4F875354429
:1022B000FFF7F2FA00EB800000EB80006668760022
:1022C000B0FBF6F6FFF7E8FA00EB800000EB8000C9
:1022D00063685B00B0FBF3F3A7FB03235B0908FB18
:1022E00013684FEAC80808F13208A7FB0837C7F39C
:1022F000421723682F449F6055E0FFF7CDFA00EBAB
:10230000800000EB80006568AD00B0FBF5F5284F5C
:10231000A7FB05356D092E01FFF7BEFA00EB800023
:1023200000EB80006568AD00B0FBF5F9FFF7B4FA8B
:1023300000EB800000EB80006568AD00B0FBF5F5B8
:10234000A7FB05356D094FF0640808FB15952D01B5
:102350003235A7FB05356D0905F0F0053544FFF76B
:102360009BFA00EB800000EB80006668B600B0FBD3
:10237000F6F6FFF791FA00EB800000EB800063684F
:102380009B00B0FBF3F0A7FB0030400908FB10688E
:102390004FEA081808F13208A7FB0837C7F34317BC
:1023A00023682F449F60BDE8F88300BF0010014000
:1023B0001F85EB512DE9F04105460F46164698461C
:1023C000069C2B681B6837EA03030CBF012300231C
:1023D000B3421DD1B4F1FF3FF3D02CB1FEF70AFE9A
:1023E000A0EB0800A042ECD92A68D36823F4D0738C
:1023F000D3602A68536923F001035361202385F8D1
:10240000393085F83A30002385F83830032000E071
:102410000020BDE8F08158B310B5044690F839307B
:102420000BB3242384F839302268D36823F4005393
:10243000D3602046FFF724FE2268136923F49043FB
:1024400013612268536923F02A0353612268D36819
:1024500043F40053D3600020E063202384F8393034
:1024600084F83A3010BD80F8383000F01FFCD8E70F
:10247000012070472DE9F04182B01E4690F83930B6
:10248000DBB2202B55D104460D469046002955D08D
:10249000002A55D090F83830012B53D0012380F812
:1024A00038300023C363212380F83930FEF7A2FDC2
:1024B0000746A4F82480A4F8268010E000963B4646
:1024C000002280212046FFF775FF00283CD12B8891
:1024D0002268C3F3080353602369C3B90235E38C50
:1024E0009BB2B3B1E38C013B9BB2E384A368B3F529
:1024F000805FE3D000963B46002280212046FFF714
:1025000059FF18BB2A7823685A600135E7E701357F
:10251000E5E700963B46002240212046FFF74AFFB0
:102520000346A8B9202284F83920002284F83820F4
:1025300000E00223184602B0BDE8F0810123F9E76C
:102540000123F7E70223F5E70323F3E70323F1E78A
:102550000323EFE72DE9F04182B01E4690F83A30B0
:10256000DBB2202B5AD104460D469046002959D0A3
:10257000002A59D090F83830012B57D0012380F829
:1025800038300023C363222380F83A30FEF732FD4F
:102590000746A4F82C80A4F82E801DE000963B4648
:1025A000002220212046FFF705FF002840D12369A3
:1025B00033B923685B68C3F3080325F8023B0BE0DB
:1025C00023685B68DBB225F8013B05E023685B68A4
:1025D00003F07F032B700135E38D9BB2BBB1E38D1C
:1025E000013B9BB2E385A368B3F5805FD6D000962C
:1025F0003B46002220212046FFF7DCFED0B92369AC
:10260000002BE3D123685B682B700135E4E72023BE
:1026100084F83A30002084F8380000E0022002B04C
:10262000BDE8F0810120FAE70120F8E70220F6E793
:102630000320F4E70320F2E770B505460E460024B8
:102640000CE045FA04F2134B211D02F0010233F8AD
:1026500011101868FEF738FE0134E4B2032CF0D9EB
:102660000C4C3246E1882068FEF72EFE0022A1883D
:102670002068FEF729FE0122A1882068FEF724FECB
:102680000120FEF7BDFC0022A1882068FEF71CFE99
:1026900070BD00BFFC03002038B504460D4600099C
:1026A000FFF7CAFF29462046FFF7C6FF0120FEF7C5
:1026B000A7FC38BD70B586B0224B186800230222F3
:1026C0001946806801F0A8FD1420FEF799FC1E4B06
:1026D0009D88DE881C8958899989DA8935432C437D
:1026E000204301430A4301920122029200240394F1
:1026F0000225049501A91868FEF714FD2146032060
:10270000FFF79AFF0A20FEF77BFC21460320FFF724
:1027100093FF0320FEF774FC21460320FFF78CFF94
:102720000320FEF76DFC21462846FFF785FF214672
:102730000620FFF7B1FF21460E20FFF7ADFF06B0E0
:1027400070BD00BF0C000020FC03002008B5002174
:102750000120FFF7A1FF0A20FEF752FC08BD000090
:1027600082B000230193064B1A6B42F001021A63F8
:102770001B6B03F001030193019B02B0704700BF84
:102780000038024002680B4B9A4200D070470A4A58
:10279000136801331360C22B02DD134600221A6056
:1027A000064B1A68044B196803EB41039B8853637B
:1027B000ECE700BF00480140F80100204804002079
:1027C000FEE7000008B50B480B4B03604FF4E13304
:1027D000436000238360C36003610C224261836114
:1027E000C361FFF718FE00B908BD40F2411103486C
:1027F000FFF7E6FF8404002000440040B8560008BC
:1028000000B595B03448354B036013234360002373
:102810008360C222C26003614361FFF7A1FA00280E
:102820003ED114A94FF4805341F8103D2A48FFF7D8
:1028300007F9002838D12848FFF7ABFA002837D12C
:1028400000230E930F930EA92348FFF7C2FB002825
:1028500033D16023079364230893002209920A92DC
:102860000B920C920D9207A91B48FFF7D9FA48BBAF
:1028700000230093019302933222039204934FF4B6
:10288000005305934FF48043069369461248FFF7BF
:10289000C9FBE0B9104800F0EDF915B05DF804FB94
:1028A000F8210F48FFF78CFFFD210D48FFF788FF47
:1028B00040F201110A48FFF783FF4FF48471084882
:1028C000FFF77EFF4FF48A710548FFF779FF4FF459
:1028D00090710348FFF774FF480400200000014096
:1028E000B856000808B50948094B036063234360E4
:1028F000002383604722C2600361FFF731FA00B909
:1029000008BD4FF498710348FFF75AFF0C040020EC
:1029100000480140B856000800B595B00022019269
:10292000284B196C41F0805119641B6C03F08053E3
:102930000193019B0292244B196841F440411960B4
:102940001B6803F440430293029B02230893012176
:102950000B9110210C910E930F921091A8221192BD
:1029600012930423139308A8FEF7B4FC08BB0F23AB
:10297000039302210491002305934FF480520692A1
:10298000079303A8FEF7C6FEB8B9FEF76FFF0F4B1B
:10299000A3FB00308009FEF799FB0420FEF7ACFB97
:1029A000002211464FF0FF30FEF750FB15B05DF8E6
:1029B00004FBCD210648FFF703FFDA210448FFF7A7
:1029C000FFFE00BF0038024000700040D34D62108F
:1029D000B856000800000000F0B591B0FEF7E4FA28
:1029E000FFF79AFFFFF7BCFEFFF7ECFEFFF708FFCB
:1029F000FFF778FF002400944B4B1A6B42F0010262
:102A00001A631B6B03F001030093009B474B0122E9
:102A10009A800222DA8020221A8140225A811022D2
:102A20009A814FF48062DA81414A1A60FFF742FED0
:102A3000FFF78CFE3F4801F0D7FBDFED3F7A2FE038
:102A400017EE900AFDF730FD06460F4630A3D3E996
:102A50000023FDF781FD0022384BFDF7A7FE41EC76
:102A6000100B00F0C1F92CA3D3E9002351EC100B9B
:102A7000FDF772FD0022324BFDF7B8FB314D05EB3F
:102A80004405FEF72BF8A88025A3D3E900233046A0
:102A90003946FDF7ABFBFEF741F807EE900A01342B
:102AA0009FED297AF4EEC77AF1EE10FAC8D42748E0
:102AB000FEF7B9FF264C00212046FFF778FA0021E7
:102AC0002046FFF72BFA23681E4A92885A635B6BF5
:102AD000012303220EA91F48FFF73CFD0028F7D170
:102AE0000EA801F051FB044602461B4901A801F063
:102AF00041FC642382B201A91648FFF7BBFC134BCB
:102B00001B6841F2707090FBF4F09862E0E700BF40
:102B1000182D4454FB2109400000000000C0524021
:102B20009ED8899DD889FD3F00380240FC030020D3
:102B300000000240C8560008000000000080664007
:102B400000805840F80100200000B4430C0400202D
:102B50004804002084040020D456000810B582B038
:102B600000240094214B5A6C42F480425A645A6CFF
:102B700002F480420092009A01941A6C42F0805252
:102B80001A641B6C03F080530193019B0320FEF732
:102B90004BFA224621466FF00B00FEF757FA224609
:102BA00021466FF00A00FEF751FA224621466FF0E7
:102BB0000900FEF74BFA224621466FF00400FEF7AB
:102BC00045FA224621466FF00300FEF73FFA2246FF
:102BD00021466FF00100FEF739FA224621464FF0F8
:102BE000FF30FEF733FA02B010BD00BF00380240DC
:102BF00010B582B003681C4A934204D01B4A93422A
:102C00001ED002B010BD00240094194B5A6C42F043
:102C100001025A645B6C03F001030093009B22469F
:102C200021461920FEF712FA1920FEF743FA224630
:102C300021461A20FEF70AFA1A20FEF73BFAE0E7CF
:102C4000002101910A4B5A6C42F480225A645B6C59
:102C500003F480230193019B0A461A20FEF7F6F93C
:102C60001A20FEF727FACCE7000001400048014097
:102C70000038024002680B4B9A4200D0704700B502
:102C800087B04FF4C0730193022302930023039390
:102C900004930123059301A90348FEF743FA07B003
:102CA0005DF804FB00000140000002400268114B87
:102CB0009A4200D0704700B587B0002300930E4BB6
:102CC0001A6C42F400321A641B6C03F40033009354
:102CD000009B0C23019302230293012303930323FC
:102CE00004930723059301A90448FEF71BFA07B0D4
:102CF0005DF804FB00440040003802400000024040
:102D00007047FEE7FEE7FEE7FEE770477047704753
:102D100008B5FEF763F9FEF700FA08BD08B50248EA
:102D2000FEF716FF08BD00BF4804002008B50348A1
:102D3000FEF70EFF0248FEF70BFF08BD4804002017
:102D40000C0400200F49D1F8883043F47003C1F817
:102D500088300D4B1A6842F001021A60002098601A
:102D60001A6822F0847222F480321A60074A5A608C
:102D70001A6822F480221A60D8604FF000638B60DA
:102D8000704700BF00ED00E0003802401030002422
:102D9000DFF834D0002103E00C4B5B584350043182
:102DA0000B480C4B42189A42F6D30B4A02E0002320
:102DB00042F8043B094B9A42F9D3FFF7C3FF01F0F5
:102DC000E7F9FFF709FE7047000002207C5A00086F
:102DD00000000020DC010020DC010020C8040020ED
:102DE000FEE700000000000000B551EC100B2C4A7B
:102DF00021F00043934285B027DD2A4A934209DD42
:102E000010EE102A0B46FDF7EFF941EC100B05B060
:102E10005DF804FB684600F047F800F00300012865
:102E20001FD0022830D028B39DED021B9DED000B72
:102E300000F066FA53EC102B10EE100A03F100417B
:102E400041EC100B05B05DF804FB00209FED121B58
:102E500000F0A6FF51EC100B41EC100B05B05DF833
:102E600004FB9DED021B9DED000B00F049FA51ECB7
:102E7000100BCAE701209DED021B9DED000B00F039
:102E80008FFF51EC100BC0E701209DED021B9DED63
:102E9000000B00F085FFCDE70000000000000000FF
:102EA000FB21E93FFFFFEF7F2DE9F04753EC102BAB
:102EB000BF4923F000478F4290B040F39380BD4953
:102EC0008F421C46824629DC002C194610EE100A5F
:102ED000ADA3D3E9002340F39080FDF785F9B64B0D
:102EE0009F4204460D4600F07381A9A3D3E9002355
:102EF000FDF77AF902460B46CAE900232046294627
:102F0000FDF772F9A2A3D3E90023FDF76DF90125BE
:102F1000CAE90201284610B0BDE8F087A7498F42F0
:102F200040F38A80A6498F4200F320813D15A5F227
:102F3000164510EE100AA7EB055116460F46FDF791
:102F4000A5FDFDF79FFA8046894642464B4630462E
:102F50003946CDE90A89FDF747F90022994BFDF77B
:102F6000FBFA89468046FDF791FDFDF78BFA064690
:102F70000F4632463B4640464946CDE90C67FDF7D1
:102F800033F900228F4BFDF7E7FA00220023CDE949
:102F90000E01FDF749FD002800F065810023304651
:102FA00039460022FDF740FD002814BF012302230B
:102FB000854A019202212A4600910AA8514600F052
:102FC000E3FA002C054614DADAF80420DAF80C30BB
:102FD00002F1004203F100434542CAF80420CAF856
:102FE0000C3006E080ED000B00250024C0E902450E
:102FF0000025284610B0BDE8F087FDF7F7F86E4BC6
:103000009F4204460D4600F0108161A3D3E90023DE
:10301000FDF7ECF802460B46CAE900232946204694
:10302000FDF7E2F85AA3D3E90023FDF7DFF84FF0EC
:10303000FF35CAE90201DCE700F07CFF59EC108B98
:1030400010EE100A54A3D3E900234946FDF784FA91
:1030500000225E4BFDF7CAF8FDF718FD0546FDF7A7
:1030600011FA49A3D3E90023CDE90601FDF774FA6B
:1030700002460B4640464946FDF7B6F844A3D3E95D
:10308000002380468946DDE90601CDE90289FDF786
:1030900063FA1F2D02460B46CDE9042340F3B580A9
:1030A000DDE90423DDE90201FDF79EF8804689464B
:1030B0003F15C9F30A53FB1A102B40F3B38038A312
:1030C000D3E90023DDE90601FDF746FA804689468B
:1030D00002460B46DDE90201FDF786F802460B4683
:1030E000DDE90201CDE90823FDF77EF842464B46B3
:1030F000FDF77AF82CA3D3E9002380468946DDE961
:103100000601FDF729FA42464B46FDF76DF80B46DE
:10311000CDE904010246DDE90801FDF765F8C1F3D8
:103120000A53FF1A312F8046894600F39E809DED99
:10313000087BCAE900898DED027B42464B46DDE9FA
:103140000201FDF751F8DDE90423FDF74DF8002CED
:10315000CAE90201BFF64DAF09F1004401F1004395
:103160006D42CAE90084CAE9020342E710EE100A80
:103170001946FDF739F80025CAE90201CAE900013C
:1031800037E700BFAFF3008000004054FB21F93F58
:103190003163621A61B4D03D83C8C96D305FE43FCA
:1031A0000000601A61B4D03D7370032E8A19A33BEE
:1031B000FB21E93F7BD90240FB21F93FFB2139414B
:1031C000FFFFEF7F00007041705700080000E03FF4
:1031D00041A3D3E90023FDF707F841A3D3E9002376
:1031E0000D460446FDF700F802460B46CAE90023E7
:1031F00029462046FCF7F8FF39A3D3E90023FCF762
:10320000F3FF0125CAE90201F3E640464946FCF70F
:10321000EBFF394B6A1E804653F82230BB42894689
:103220003FF446AFCAE9008987E72BA3D3E900231F
:10323000FCF7DCFF2AA3D3E900230D460446FCF784
:10324000D5FF02460B46CAE9002329462046FCF773
:10325000CBFF23A3D3E90023FCF7C8FF4FF0FF35D2
:10326000CAE90201C5E60323A2E61FA3D3E90023AE
:10327000DDE90601FDF770F906460F4602460B46EA
:10328000DDE90801FCF7B0FF8046894602460B469F
:10329000DDE90801CDE90289FCF7A6FF32463B468D
:1032A000FCF7A2FF12A3D3E9002306460F46DDE98F
:1032B0000601FDF751F932463B46FCF795FF024601
:1032C0000B4640464946CDE90423FCF78DFF804676
:1032D0008946A7E7AFF300800000601A61B4D03DD3
:1032E0007370032E8A19A33B0000002E8A19A33B9A
:1032F000C14920259A837B39F05600080000000060
:103300002DE9F04F57EC106B2DED028BB0EE418A9A
:10331000F0EE618A27F00049B9F1795F83B072DA83
:1033200010EE100A3946FDF7B1FB002800F0ED80E1
:1033300032463B4630463946FDF70EF97CA3D3E9C9
:10334000002304460D46FDF707F97BA3D3E90023CC
:10335000FCF74CFF22462B46FDF7FEF878A3D3E995
:103360000023FCF741FF22462B46FDF7F5F876A334
:10337000D3E90023FCF73AFF22462B46FDF7ECF891
:1033800073A3D3E90023FCF72FFF22462B46FDF75A
:10339000E3F871A3D3E90023FCF728FF22462B466C
:1033A000FDF7DAF882468B460022714B204629460B
:1033B000FDF7D2F85246804689465B4620462946AC
:1033C000FDF7CAF853EC182B04460D463046394633
:1033D000FDF7C2F802460B4620462946FCF704FFDB
:1033E00002460B4640464946FCF7FEFE02460B46A7
:1033F00000206049FCF7F8FE41EC100B03B0BDEC77
:10340000028BBDE8F08F10EE102A10EE100A3B463A
:103410003946FDF7A1F846A3D3E9002304460D463B
:10342000FDF79AF844A3D3E90023FCF7DFFE224618
:103430002B46FDF791F842A3D3E90023FCF7D4FE15
:1034400022462B46FDF788F83FA3D3E90023FCF77B
:10345000CDFE22462B46FDF77FF83DA3D3E900239E
:10346000FCF7C2FE22462B46FDF776F83AA3D3E9D5
:103470000023FCF7BBFE2B462246FDF76DF83E4BC2
:10348000994582468B468FDD3C4B994544DC0022B2
:10349000A9F500130020374990469946FCF7A4FE91
:1034A000CDE900010022324B20462946FDF754F8B1
:1034B00042464B46FCF798FE5246804689465B469C
:1034C00020462946FDF748F853EC182B04460D46D4
:1034D00030463946FDF740F802460B46204629465D
:1034E000FCF782FE02460B4640464946FCF77CFE4E
:1034F00002460B46DDE90001FCF776FE41EC100BBD
:1035000003B0BDEC028BBDE8F08F9FED150B03B04F
:10351000BDEC028BBDE8F08F9FED137B4FF00008F0
:103520008DED007BDFF85890BCE700BFAFF3008063
:10353000D43888BEE9FAA8BDC4B1B4BD9EEE213E20
:10354000AD529C804F7E923E9015CB19A001FA3E61
:103550007751C1166CC1563F4C5555555555A53F31
:10356000000000000000F03F000000000000E73F06
:103570000000E03F0000F03F3233D33F0000E93F5E
:103580000000D23F000000002DE9F04FADF5197D9D
:10359000C14CA29EC14D54F826600793D41E85FBF2
:1035A0000475E417C4EBA50424EAE4741D46631C07
:1035B000A3EB8303013D02EBC30305937319049648
:1035C0000994019503900B91A4EB05071AD43B4491
:1035D000002400255E1C0DF18008DDF88C9208E0C7
:1035E00059F82700FCF74EFF0137B742E8E802011F
:1035F00008D0002FF4DA013720462946B742E8E820
:103600000201F6D1049B002B079B4FEAC3030293F0
:103610002ADB039A20A902EB030801EB0309049BB0
:1036200072AA02EBC30B0DF5E07A019B002B4FF061
:1036300000064FF0000711DB039C4D4675E902239D
:10364000F4E80201FCF788FF02460B463046394693
:10365000FCF7CCFD444506460F46EFD1EAE8026789
:10366000DA4509F10809E0D1DDE9020404992044B2
:103670008B0082460BA8A3F10802C31808930CAB79
:1036800013440A938B4698AB03EBCB03BBF1000FBB
:1036900053E9284529DD70AB03EBCB080DF1300968
:1036A00000227F4B20462946FCF756FFFDF7EEF936
:1036B000FCF7E8FE00227B4B06460F46FCF74CFF6A
:1036C00002460B4620462946FCF78EFDFDF7DEF943
:1036D00078E9022349F8040B39463046FCF786FDA9
:1036E00070AB984504460D46DAD1DDF8149045ECF0
:1036F000104B484600F0B0FC55EC104B00224FF048
:103700007F5310EE100A2946FCF726FF41EC100B00
:1037100000F01AFC002251EC100B634BFCF71CFF6D
:1037200002460B4620462946FCF75EFD0D46044640
:10373000FDF7ACF98046FCF7A5FE0B46024629468C
:103740002046FCF751FD4B46002B06460F4640F342
:10375000E0800BF1FF320CA9C9F1180351F8225097
:1037600045FA03F101FA03F30CA8EB1A40F82230F2
:10377000C9F11705884443FA05F5002D2CDDBBF18E
:10378000000F08F1010840F386820C9C002C40F0E9
:10379000A680BBF1010F0AD00CA9012251F8044FF9
:1037A000531C002C40F09D809B451A46F6D1059B8A
:1037B000002B0EDD012B00F0D880022B09D10BF17C
:1037C000FF320CAB0CA953F82230C3F3150341F8B8
:1037D0002230022D00F0AE80002200233046394610
:1037E000FDF722F9002800F05882049B0BF1FF3905
:1037F0004B4510DC0BF180430CAA013B089802EB0F
:103800008303002253F80419834242EA0102F9D1EA
:10381000002A40F0B580049B0CAA013B52F82330EB
:10382000002B40F0A0800A9A012352F804190133BA
:103830000029FAD05B440BF10109994506934BDC52
:10384000099A079909EB020801EB0B0508F180487A
:1038500002EB030BA39B08F1FF3803EB880870AB66
:1038600003EBC909A39B20A903EB8B0301EBC5055F
:10387000029358F8040FFCF705FE0B460199024627
:10388000002905F1080BC5E900234FF000064FF0B1
:1038900000071BDB039C0BE0B8580008ABAAAA2A60
:1038A0000000703E000070410000204075E90223D6
:1038B000F4E80201FCF750FE02460B46304639465A
:1038C000FCF794FC544506460F46EFD1029B984501
:1038D000E9E802675D46CCD1DDF818B0D3E60123F4
:1038E00000220CA9C4F180749B4541F822400EDDF2
:1038F00051F8232001EB8B0001EB83036FF07F4134
:1039000000E01A688A1A43F8042B8342F9D1012493
:103910004DE706D10BF1FF330CAA52F82350ED15F9
:103920002BE700227E4BFDF79DF8002840F0A9818F
:10393000054651E732463B4600207A49FCF754FCE5
:1039400006460F46002C3FF447AF05989FED700BDD
:1039500000F082FB3046394653EC102BFCF744FC58
:1039600006460F4638E7012364E70BF1FF320CAB44
:103970000CA953F82230C3F3160341F8223028E78C
:103980000CAB059A53F82930183ACDE90685059213
:103990006BB909F18043013B0CA901EB830353F898
:1039A000041909F1FF39183A0029F8D00592059851
:1039B0009FED570B00F050FBB9F1000F55EC104B89
:1039C000C0F2C9814FEAC90370AA02EB0308089349
:1039D0000CAB03EB8906DFF850B14FF0000A08F199
:1039E0000807043656F8040DFCF74CFD22462B461A
:1039F000FCF7B2FD5B4667E90201524620462946C4
:103A0000FCF7AAFD0CAB9E4204460D46EAD148AB3A
:103A100003930193CDF8149009F10103DDF81090A0
:103A20000293C3464FF0000AB9F1000FC0F2308193
:103A3000DFF8F8805D4638A3D3E90023002600278D
:103A4000002403E0544510DCF8E80223F5E8020105
:103A5000FCF782FD02460B4630463946FCF7C6FBB2
:103A60000134A14506460F46ECDA019BE3E8026704
:103A70000193029B0AF1010A9A45ABF1080BD3D1DD
:103A8000A29BDDF81490032B39D8DFE813F0DF0098
:103A900006000600530048AB0393B9F1000F4FF046
:103AA00000004FF0000109DB039D05EBC904083459
:103AB00074E90223FCF79AFBA542F9D1079B002B7E
:103AC00040F027810B9BC3E900010B460399024696
:103AD000D1E90001FCF788FBB9F1000F0CDD4AAD1C
:103AE00001240134F5E80223FCF780FBA145F8DA54
:103AF000079B002B40F01D810B9BC3E90201069B35
:103B000003F007000DF5197DBDE8F08FAFF30080DD
:103B1000000000000000F03F00000040FB21F93FE2
:103B20000000E03F0000F03F0000703E80580008B9
:103B300048AB0393B9F1000F40F32981039ACDF804
:103B400010904FEAC9030193D318D3E900AB09F1F0
:103B50000053013B02EBC9080293914678E90267E2
:103B600052465B4630463946FCF740FB04460D465C
:103B700002460B4630463946FCF736FB52465B465A
:103B8000FCF734FBC145A246AB46C8E90201C8E9CF
:103B90000045E3D1DDF81090B9F1010F40F3F78053
:103BA000019B039A02991344C900D3E9006701F10C
:103BB000080A019192440DF5947B7AE90289324614
:103BC0003B4640464946FCF711FB04460D4602467B
:103BD0000B4640464946FCF707FB32463B46FCF79E
:103BE00005FBD34526462F46CAE90201CAE900452E
:103BF000E3D1019C039B1034002000211C4403F1FD
:103C0000100574E90223FCF7F1FAA542F9D1039CEF
:103C1000079ED4E90023D4E90245002E00F08D80F0
:103C200003F1004701F100430B99C1E90403069B2E
:103C30002646944605F1004403F00700C1E900C799
:103C4000C1E902640DF5197DBDE8F08F089C039D64
:103C50000834002000212C4474E90223FCF7C6FA42
:103C6000A542F9D1079B13B101F1004319460B9B03
:103C7000C3E90001069B03F007000DF5197DBDE8BF
:103C8000F08FBBF1000F08F1010876DD02257CE51D
:103C900000260027E9E6002489E5CDE90685059D93
:103CA00047EC106B684200F0D7F957EC106B00221C
:103CB000384B10EE100A3946FCF7D4FE00B3002250
:103CC000354B30463946FCF747FCFCF7DFFE04462F
:103CD000FCF7D8FB00222F4BFCF73EFC0B460246BC
:103CE00039463046FCF780FAFCF7D0FE0BF10109AB
:103CF0000CAB183543F82B00059543F8294056E6E0
:103D000030463946FCF7C2FE0CABD94643F82B00CF
:103D10004DE60B9C01F10043C4E900030B460399F7
:103D20000246D1E90001FCF75FFAB9F1000F3FF755
:103D3000D6AE01F100431946DEE60B9EC6E900232C
:103D4000069BC6E9040103F00700C6E902450DF52C
:103D5000197DBDE8F08FA29B032B3FF6D0AE01A2E8
:103D600052F823F0753D0008973A0008973A00088A
:103D7000313B00080020002174E732463B4600201A
:103D80000649FCF731FA022506460F4624E50020D5
:103D900000213CE7000070410000703E0000F03F51
:103DA0002DE9F04F55EC104B2DED028BB0EE418A12
:103DB000F0EE618A25F00043B3F1795F83B082466B
:103DC00007DA10EE100A2946FCF760FE002800F022
:103DD0008E8022462B4620462946FCF7BDFB064630
:103DE0000F4602460B4620462946FCF7B5FB47A383
:103DF000D3E900238046894630463946FCF7ACFBC0
:103E000044A3D3E90023FCF7EFF932463B46FCF725
:103E1000A3FB42A3D3E90023FCF7E8F932463B4673
:103E2000FCF79AFB3FA3D3E90023FCF7DDF9324608
:103E30003B46FCF791FB3DA3D3E90023FCF7D6F901
:103E4000CDE90001BAF1000F37D000222E4B51EC22
:103E5000180BFCF781FBDDE9002382468B464046C8
:103E60004946FCF779FB02460B4650465946FCF79B
:103E7000BBF932463B46FCF76FFB53EC182BFCF7C3
:103E8000B3F91FA3D3E9002306460F46404649462F
:103E9000FCF762FB02460B4630463946FCF7A6F9B2
:103EA00002460B4620462946FCF79EF941EC100BD2
:103EB00003B0BDEC028BBDE8F08F02460B463046E6
:103EC0003946FCF749FB0EA3D3E90023FCF78CF934
:103ED00042464B46FCF740FB22462B46FCF786F950
:103EE00041EC100B03B0BDEC028BBDE8F08F45EC4C
:103EF000104B03B0BDEC028BBDE8F08FAFF3008038
:103F0000495555555555C53F0000E03F7CD5CF5A22
:103F10003AD9E53DEB9C2B8AE6E55A3E7DFEB1574A
:103F2000E31DC73ED561C119A0012A3FA6F81011B3
:103F30001111813F51EC100B10EE102A21F00043BB
:103F400043EC102B704700BF51EC100BC1F30A5328
:103F50002DE9F041A3F2FF35132D0C460F4610EE6C
:103F6000106A1DDC002D3DDB394B43FA05F801EAF0
:103F70000803034319D034A3D3E90023FCF736F92F
:103F800000220023FCF778FDD0B3002C04DA4FF4B4
:103F9000801343FA05F52F4427EA080400262FE092
:103FA000332D06DDB5F5806F30D041EC100BBDE848
:103FB000F081A3F213434FF0FF3828FA03F818EA10
:103FC000000FF2D020A3D3E90023FCF70FF9002261
:103FD0000023FCF751FD98B1002C28DB26EA0806E7
:103FE0003C460DE018A3D3E90023FCF7FFF80022BC
:103FF0000023FCF741FD18B1002C0FDB00263446EE
:104000002346324643EC102BBDE8F08110EE102A17
:104010000B46FCF7EBF841EC100BC8E724F000432B
:104020000C4A1E43002E18BF14460026E8E7142D44
:1040300008D00123C5F1340503FA05F5AE1928BFF0
:10404000FF18CBE70137C9E79C7500883CE4377E51
:10405000FFFF0F000000F0BF38B553EC102BC3F387
:104060000A511C46054629BB10EE101A23F00044E5
:1040700021431ED019460022394B3A4C10EE100A4B
:10408000FCF76AFAA54202460B4636DB0C46C1F342
:104090000A513639294440F2FE70814235DC00294C
:1040A00014DD24F0FF4424F4E00444EA015343EC1B
:1040B000102B38BD40F2FF708142EBD110EE100A98
:1040C0001946FCF793F841EC100B38BD11F1350F90
:1040D0001EDA4CF250318D4243EC112B28DD9FED5E
:1040E0001C0B00F043F81AA3D3E9002351EC100B8A
:1040F000FCF732FA41EC100B38BD17A3D3E90023CB
:10410000FCF72AFA41EC100B38BD43EC112BE6E723
:1041100024F0FF4424F4E004363144EA015310460D
:1041200019460022104BFCF717FA41EC100B38BD72
:104130009FED090B00F01AF807A3D3E9002351EC17
:10414000100BFCF709FA41EC100B38BDAFF30080FF
:104150009C7500883CE4377E59F3F8C21F6EA501B8
:1041600000005043B03CFFFF0000903C53EC102B8C
:1041700011EE900A23F0004100F0004041EA0003F4
:1041800043EC102B704700BF0A22002100F08EB9CB
:1041900070B50D4E0D4CA41BA4100025A54209D1ED
:1041A0000B4E0C4C01F06EFAA41BA4100025A54286
:1041B00005D170BD56F8253098470135EEE756F821
:1041C000253098470135F2E7745A0008745A000800
:1041D000745A0008785A000802440346934200D1FA
:1041E000704703F8011BF9E70FB40A4B13B51C68BD
:1041F00024B1A36913B9204600F05EFA05AB049A16
:10420000A1680193204600F085FD02B0BDE8104092
:1042100004B070470C0000202DE9F7431D46514BB8
:104220001E6804460F46904626B1B36913B930465E
:1042300000F042FA4C4B9C4252D17468B8F1020F24
:1042400006D0B8F1010F00F28980002DC0F28680FF
:104250002146304600F0C6F9616B41B104F14403D8
:10426000994202D0304600F033FB00236363002301
:10427000A3616360A3891B0603D52169304600F062
:1042800027FBA38923F44A6323F00303B8F1020F49
:10429000A3815DD001AB6A462146304600F099FA11
:1042A000A3891843A0812DBB009D284600F0F6FA93
:1042B000074600284ED1DDF80090A9453CD14FF0CB
:1042C000FF30A38943F00203A3810023A36004F11C
:1042D0004703236023610123636103B0BDE8F083DA
:1042E000224B9C4201D1B468A8E7214B9C4208BFF5
:1042F000F468A3E7002FD8D0B36913B9304600F0B3
:10430000DBF9B8F1010F08BFA389276004BF43F0B0
:104310000103A381A38913F00800C4E904751BD02D
:1043200013F0010018BF6D424FF000031DBFA360E2
:10433000A5611846A560D0E7484600F0AFFA0746E9
:104340000028BCD0A38943F08003A3814D46D3E766
:104350000020B6E7A946F5E7A060BEE74FF0FF30C2
:10436000BBE700BF0C000020EC5800080C59000807
:10437000CC5800080EB400B59CB01DAB029006905E
:104380006FF00041094807910491094953F8042B43
:1043900005910068019302A900F09CFB029B00229A
:1043A0001A701CB05DF804EB03B070470C000020DD
:1043B0000802FFFF2DE9F0478046894692461E46D7
:1043C0000F463D46089815F8014B00F0FFF92044D0
:1043D000437813F0080332D12D2C32D17C78BD1CE8
:1043E0000122002E5DD0102E09D1302C07D12B7860
:1043F00003F0DF03582B4FD16C7810260235002ACA
:1044000014BF4FF000416FF000410027B1FBF6FCF4
:10441000384606FB1C1EA4F13003092B17D81C4696
:10442000A64223DD7B1C07D084451CD301D1A645C1
:1044300019DB00FB0640012715F8014BEBE72F467F
:10444000BFE72B2C04BFBD1C7C781A46C9E7A4F13A
:104450004103192B01D8373CE2E7A4F16103192B82
:1044600004D8573CDCE74FF0FF37E5E77B1C08D169
:104470002223C8F800300846BAF1000F07D1BDE882
:10448000F08702B14042BAF1000FF8D00FB105F148
:10449000FF39CAF80090F2E73024002EAFD1082689
:1044A000ADE7302CA3D00A26A9E70000084B37B5AA
:1044B0001C68084D236A002B08BF2B460093134647
:1044C0000A4601462046FFF775FF03B030BD00BF26
:1044D0000C000020700000208A892DE9F04105467B
:1044E00010070C4658D44B68002B05DC0B6C002BD6
:1044F00002DC0020BDE8F081E66A002EF9D000233E
:1045000012F480522F68216A2B6032D0606DA3892B
:104510005A0705D56368C01A636B0BB1236CC01AC8
:1045200000230246E66A216A2846B047431CA38955
:1045300006D129681D2948D8294ACA40D60744D53A
:1045400000226260D9042269226004D5421C01D194
:104550002B6803B96065616B2F600029C9D004F135
:104560004403994202D0284600F0B2F9002060636B
:10457000C0E701232846B047411CC8D12B68002B57
:10458000C5D01D2B01D0162B01D12F60B1E7A38917
:1045900043F04003A381ADE70F69002FA9D0930733
:1045A0000E6808BF4B690F6018BF0023A6EB070811
:1045B0008B60B8F1000F9CDD43463A46216AA66A3B
:1045C0002846B047002806DCA38943F04003A381B6
:1045D0004FF0FF308EE70744A8EB0008E9E700BF83
:1045E0000100402038B50B6905460C46DBB118B117
:1045F00083690BB900F060F80C4B9C4209D16C68E0
:10460000B4F90C307BB121462846BDE83840FFF7AD
:1046100063BF074B9C4201D1AC68F1E7054B9C425C
:1046200008BFEC68ECE7002038BD00BFEC5800087C
:104630000C590008CC580008002310B50446C0E906
:104640000033836081814366C281C0E904338361A2
:10465000194608225C30FFF7BFFD054B6362054B2E
:10466000A362054BE362054B2462236310BD00BFC8
:104670006D5200088F520008C7520008EB52000824
:10468000014900F085B800BFE545000870B54A1E35
:10469000682555430E4605F1740100F067F904469C
:1046A00040B10021C0E900160C30A06005F168029D
:1046B000FFF792FD204670BD836910B5044633BBF9
:1046C000C0E912330365124B124A1B68826298429A
:1046D00004BF0123836100F01FF86060204600F0F2
:1046E0001BF8A060204600F017F80022E0600421CB
:1046F0006068FFF7A1FF01220921A068FFF79CFF76
:1047000002221221E068FFF797FF0123A36110BD89
:10471000C858000881460008F8B51B4B1E68B369ED
:10472000074613B93046FFF7C7FF4836D6E90134CC
:10473000013B03D5336833B13668F7E7B4F90C5061
:104740006DB16834F4E704213846FFF79FFF30600D
:104750000028F1D10C233B6004462046F8BD0B4BEA
:104760006566C4E90055A560C4E90335C4E905558B
:104770000822294604F15C00FFF72EFDC4E90D551F
:10478000C4E91255E9E700BFC85800080100FFFF5F
:104790002DE9F8438046894600F14804002614B903
:1047A0003046BDE8F883D4E90175013F01D524689E
:1047B000F5E7AB89012B07D9B5F90E30013303D0EA
:1047C00029464046C84706436835EEE7D0F8EC0076
:1047D000704770B50E46B1F90E10002996B0144618
:1047E0001D4607DA00232B60B3891A0610D44FF454
:1047F00080630EE06A4600F06DFE0028F2DB019A4D
:1048000002F47042A2F500535A425A412A60EEE780
:1048100040230020236016B070BD00008B8973B563
:104820009D0706460C4607D504F147032360236124
:104830000123636102B070BD01AB6A46FFF7C9FF97
:1048400000990546304600F091F848B9B4F90C30AB
:104850009A05EFD423F0030343F00203A381E3E7B7
:104860000D4BB362A389206043F08003A381009BBA
:104870006361019B20615BB1B4F90E10304600F01A
:104880003BFE28B1A38923F0030343F00103A38176
:10489000A3891D43A581CDE781460008024B01464F
:1048A000186800F063B800BF0C00002082B001B9A6
:1048B00001A942B14BB113780B601278101C18BFDC
:1048C000012002B070471046FBE76FF00100F8E7E7
:1048D00038B50546002945D051F8043C0C1F002B83
:1048E000B8BFE41800F04EFE1F4A1368104633B9F3
:1048F000636014602846BDE8384000F044BEA3421F
:104900000CD921686218934204BF1A685B6863601F
:1049100004BF521822600460ECE713465A680AB1DB
:10492000A242FAD919685818A0420BD12068014454
:10493000581882421960DDD1106852685A600144EB
:104940001960D7E702D90C232B60D3E72068211820
:104950008A4204BF11685268626004BF091821606E
:104960005C60C7E738BD00BF8403002070B5CD1C74
:1049700025F0030508350C2D38BF0C25002D064603
:1049800001DBA94203D90C233360002070BD00F085
:10499000F9FD214A1468214691B9204C23681BB9BE
:1049A000304600F053FC20602946304600F04EFCB3
:1049B000431C24D10C233360304600F0E4FDE4E7CF
:1049C0000B685B1B18D40B2B0FD90B60CD50CC1888
:1049D000304600F0D8FD04F10B00231D20F0070045
:1049E000C31AD3D05A42E250D0E78C424B6816BF6C
:1049F000636013600C46EBE70C464968CCE7C41CC7
:104A000024F00304A04205D0211A304600F01EFC19
:104A10000130CFD02560DBE784030020880300202D
:104A20002DE9F0478E689E4282460C469046994694
:104A300037D88A8912F4906F31D0256809696F1AC6
:104A40006569022305EB450595FBF3F509F10103C3
:104A50003B449D4238BF1D46530530D52946FFF7DC
:104A600085FF064650B90C23CAF80030A38943F0ED
:104A70004003A3814FF0FF30BDE8F0873A4621693B
:104A800000F05CFDA38923F4906343F08003A381CD
:104A9000266165613E44ED1B2660A5604E464E458D
:104AA00000D94E4632464146206800F052FDA368C8
:104AB0009B1BA36023681E4426600020DCE72A4677
:104AC00000F062FD06460028E2D121695046FFF75A
:104AD000FFFEC8E72DE9F04F9DB0804603938B8918
:104AE0001D060C4616460FD50B696BB94021FFF722
:104AF0003DFF2060206128B90C23C8F800304FF03A
:104B0000FF30C7E0402363610023099320238DF821
:104B1000293030238DF82A304FF0010B37463D46BF
:104B200015F8013B0BB1252B3ED1B7EB060A0BD094
:104B30005346324621464046FFF772FF013000F0EF
:104B4000A480099B534409933B78002B00F09D807F
:104B500000234FF0FF32CDE90523049307938DF82E
:104B600053301A932F46052217F8011B4F48FCF7C4
:104B7000A7F9049BD0B9D90644BF20228DF8532051
:104B80001A0744BF2B228DF853202A782A2A15D0E1
:104B9000079A2F4600200A25394611F8013B303B81
:104BA000092B4DD9B8B10FE02F46B8E73F4A801A1C
:104BB0000BFA00F0184304903D46D3E7039A111D09
:104BC00012680391002A01DB079204E0524243F08D
:104BD0000203079204933B782E2B0CD17B782A2B6F
:104BE00033D1039B1A1D1B680392002BB8BF4FF0F3
:104BF000FF33023705932E4D397803222846FCF700
:104C00005FF938B14023401B03FA00F0049B0343D3
:104C100001370493397827488DF8281006227E1C26
:104C2000FCF74EF9002838D0234B13BB039B073306
:104C300023F0070308330393099B4B4409936DE763
:104C400005FB023201200F46A6E70023013705933A
:104C500019460A25384610F8012B303A092A03D99B
:104C6000002BC8D00591C6E705FB012101230746AB
:104C7000F0E703AB00932246104B04A94046AFF384
:104C80000080B0F1FF3F8146D6D1A3895B063FF596
:104C900036AF09981DB0BDE8F08F03AB00932246F4
:104CA000064B04A9404600F0BFF9EAE73659000870
:104CB0003C5900084059000800000000214A000843
:104CC0009368013B002B10B4936008DA9469A34207
:104CD00001DB0A2903D15DF8044B00F00BBB13681C
:104CE000581C1060197008465DF8044B7047F8B501
:104CF00006460F461446D518AC4201D1002007E005
:104D00003A4614F8011B3046FFF7DAFF431CF3D193
:104D1000F8BD00002DE9F04F9DB00C4617460393F7
:104D2000064618B183690BB9FFF7C6FC7B4B9C4262
:104D300057D17468A38918075DD52369002B5AD011
:104D40000023099320238DF8293030238DF82A3051
:104D50004FF0010BB846454615F8013B0BB1252B2A
:104D600054D1B8EB070A0BD053463A462146304699
:104D7000FFF7BDFF013000F0C280099B5344099347
:104D800098F80030002B00F0BA8000234FF0FF327B
:104D9000CDE90523049307938DF853301A93A84661
:104DA000052218F8011B5E48FCF78AF8049B78BBC3
:104DB000D90644BF20228DF853201A0744BF2B2266
:104DC0008DF853202A782A2A2AD0079AA84600204C
:104DD0000A25414611F8013B303B092B69D960B3E4
:104DE00024E0504B9C4201D1B468A3E74E4B9C4257
:104DF00008BFF4689EE72146304600F0EDFA00282F
:104E00009ED04FF0FF301DB0BDE8F08FA846A2E75E
:104E1000434A801A0BFA00F0184304904546BEE757
:104E2000039A111D12680391002A01DB079204E026
:104E3000524243F002030792049398F800302E2B5D
:104E40000ED198F801302A2B38D1039B1A1D1B680C
:104E50000392002BB8BF4FF0FF3308F1020805930F
:104E6000324D98F8001003222846FCF729F840B18B
:104E70004023401B03FA00F0049B034308F10108A0
:104E8000049398F800102A488DF82810062208F19B
:104E90000107FCF715F8002837D0264B1BBB039BF6
:104EA000073323F0070308330393099B4B4409930B
:104EB00050E705FB0232012088468AE7002308F10B
:104EC0000108059319460A25404610F8012B303A8F
:104ED000092A03D9002BC3D00591C1E705FB0121A5
:104EE00001238046F0E703AB00932246124B04A94E
:104EF0003046AFF30080B0F1FF3F8146D5D1A389A2
:104F00005B063FF57EAF09987DE703AB0093224631
:104F1000094B04A9304600F087F8ECE7EC5800088C
:104F2000365900080C590008CC5800083C590008B4
:104F30004059000800000000EF4C00082DE9F04740
:104F400091461F468A680B69DDF820809342B8BFFE
:104F50001346C9F8003091F8432006460C4612B1BA
:104F60000133C9F800302368990642BFD9F80030F0
:104F70000233C9F80030256815F0060507D104F1A1
:104F8000190AE368D9F800209B1AAB4228DC94F890
:104F900043302268003318BF012392062DD404F158
:104FA000430239463046C047013020D02368E568C7
:104FB000D9F8002003F00603042B08BFAD1AA3683C
:104FC00022690CBF25EAE57500259342C4BF9B1AF0
:104FD000ED184FF000091A344D451AD1002008E0B1
:104FE0000123524639463046C047013003D14FF0C5
:104FF000FF30BDE8F0870135C3E7E1185A1C3020C7
:1050000081F84300224494F8451082F8431002339B
:10501000C5E70123224639463046C0470130E6D075
:1050200009F10109D8E700002DE9F04301F1430C33
:105030000C46097E85B06E291746064698460C9A9E
:1050400000F0B38022D8632936D00AD8002900F0B6
:10505000B980582900F0838004F1420584F8421099
:1050600032E0642901D06929F6D120681368050669
:1050700003F104012AD51B681160002B03DA2D22ED
:105080005B4284F843206F480A2239E0732900F01C
:105090009D8008D86F2920D07029DDD1236843F086
:1050A0002003236003E0752917D07829D4D1782311
:1050B00084F84530644855E01368191D1B68116079
:1050C00004F1420584F8423001238CE01B68116032
:1050D00010F0400F18BF1BB2CFE713682568181DEA
:1050E0001060280601D51B6802E06806FBD51B8806
:1050F00054486F2914BF0A220822002184F8431063
:105100006568A560002DC0F29580216821F004013A
:105110002160002B3DD1002D40F08E806546082A8D
:105120000BD12368DB0708D5236962689A42DEBF8A
:10513000302305F8013C05F1FF35ACEB0503236195
:10514000CDF800803B4603AA21463046FFF7F6FE25
:1051500001304DD14FF0FF3005B0BDE8F083394844
:1051600084F84510136821681D1D1B6815600A0628
:105170000BD5CA0744BF41F0200121601BB922684A
:1051800022F0200222601022B7E74D0648BF9BB2F2
:10519000EFE76546B3FBF2F102FB1133C35C05F8A0
:1051A000013D0B460029F5D1B9E71368256861690F
:1051B000181D106028061B6801D5196002E06A06F8
:1051C000FBD51980002323616546B9E71368191DD3
:1051D00011601D68626800212846FBF771FE08B166
:1051E000401B606063682361002384F84330A7E7B5
:1051F00023692A4639463046C0470130AAD0236881
:105200009B0713D4E068039B9842B8BF1846A3E7F6
:1052100001234A4639463046C04701309AD001350D
:10522000E368039A9B1AAB42F2DCEBE7002504F13A
:105230001909F5E7002BACD1037884F8423004F16A
:1052400042056CE7475900085859000838B5064C24
:10525000002305460846236000F0FEF9431C02D1F6
:10526000236803B12B6038BDC404002010B50C4680
:10527000B1F90E1000F0AEF90028ABBF636DA38941
:105280001B1823F48053ACBF6365A38110BD2DE9C7
:10529000F0411F468B89DB0505460C46164605D5B1
:1052A00002230022B1F90E1000F036F9A389B4F9F7
:1052B0000E1023F48053A38132463B462846BDE8B6
:1052C000F04100F077B810B50C46B1F90E1000F0BF
:1052D00023F9431CA38915BF606523F4805343F46D
:1052E0008053A38118BFA38110BDB1F90E1000F047
:1052F000E1B80000F8B50E461446054618B18369BA
:105300000BB9FFF7D9F9214B9C422AD16C68A369EC
:10531000A360A3891A072ED5236963B32369206884
:10532000C01A6369F6B28342374604DC2146284638
:10533000FFF758F928BBA368013BA36023685A1CF8
:1053400022601E7063690130834204D0A389DB07A9
:1053500019D50A2E17D121462846FFF743F990B1F7
:105360000FE00B4B9C4201D1AC68D0E7094B9C424B
:1053700008BFEC68CBE72146284600F02DF800284E
:10538000CCD04FF0FF373846F8BD00BFEC580008CE
:105390000C590008CC58000849B1FF2A85BF8A2360
:1053A00003600A704FF0FF3098BF01207047084635
:1053B0007047000038B5074C0546084611460022E4
:1053C00022601A4600F056F9431C02D1236803B14B
:1053D0002B6038BDC4040020324B70B51D680646F2
:1053E0000C4625B1AB6913B92846FFF765F92E4B7A
:1053F0009C420FD16C68B4F90C309AB215072CD4CA
:10540000D00611D40922326043F04003A3814FF04B
:10541000FF303EE0254B9C4201D1AC68EBE7244BCA
:105420009C4208BFEC68E6E7510712D5616B41B1B9
:1054300004F14403994202D03046FFF749FA0023B1
:105440006363A38923F02403A3810023636023699A
:105450002360A38943F00803A38123694BB9A3897F
:1054600003F42073B3F5007F03D021463046FFF7E5
:10547000D5F9A28912F001030CD00023A36063695F
:105480005B42A361236953B9B4F90C3013F0800077
:10549000BAD170BD920758BF6369A360F2E70020DC
:1054A000F7E700BF0C000020EC5800080C5900087A
:1054B000CC58000838B5064C002305460846236042
:1054C00000F0A2F8431C02D1236803B12B6038BD61
:1054D000C404002038B5074C002305460846114691
:1054E000236000F099F8431C02D1236803B12B60BC
:1054F00038BD00BFC404002038B5064C0023054663
:105500000846236000F090F8431C02D1236803B1E1
:105510002B6038BDC404002038B5074C054608464A
:105520001146002222601A4600F086F8431C02D180
:10553000236803B12B6038BDC404002010B5431E9E
:105540000A44914200D110BD11F8014B03F8014FFC
:10555000F7E7884210B501EB020307D8421E9942D3
:105560000AD011F8014B02F8014FF8E78342F5D950
:105570008118D21AD34200D110BD13F8014D01F8A1
:10558000014DF7E770477047F8B5074614460E46D9
:1055900021B91146BDE8F840FFF7E8B922B9FFF795
:1055A00097F925462846F8BD00F026F8A0420FD20C
:1055B00021463846FFF7DAF905460028F2D0314691
:1055C0002246FFF7BBFF31463846FFF781F9E9E78E
:1055D0003546E7E738B5074C054608461146002230
:1055E00022601A4600F030F8431C02D1236803B150
:1055F0002B6038BDC404002051F8043C181F002B58
:10560000BCBF0B58C0187047024B58221A604FF0AD
:10561000FF307047C4040020024B58221A604FF03C
:10562000FF307047C4040020024B58221A6000204B
:10563000704700BFC4040020024B58221A604FF08C
:10564000FF307047C4040020024B58221A604FF00C
:10565000FF307047C4040020044A05491368002B3A
:1056600008BF0B4618441060184670478C03002092
:10567000C8040020024B58221A604FF0FF307047D8
:10568000C4040020F8B500BFF8BC08BC9E467047B3
:0C569000F8B500BFF8BC08BC9E4670478F
:1056A00000000000000000000102030406070809D2
:1056B00000000000010203042E2E2F5372632F6D91
:1056C00061696E2E6300000054657374616E646FCF
:1056D0003F0000004672657175EA6E63696120657E
:1056E00073636F6C686964613A2025640A00000086
:1056F000FB21F93FFB2109407CD91240FB211940D5
:105700007A6A1F407CD92240BBFD2540FB212940FD
:105710003A462C407A6A2F405C4731407CD932406F
:105720009C6B3440BBFD3540DB8F3740FB2139405B
:105730001BB43A403A463C405AD83D407A6A3F4012
:105740004C7E40405C4741406C1042407CD9424016
:105750008CA243409C6B4440AC344540BBFD45406B
:10576000CBC64640DB8F4740EB584840FB214940C1
:1057700083F9A200444E6E00FC291500D157270082
:10578000DD34F50062DBC0003C9995004190430098
:105790006351FE00BBDEAB00B761C5003A6E24006A
:1057A000D24D42004906E00009EA2E001C92D100C9
:1057B000EB1DFE0029B11C00E83EA700F535820074
:1057C00044BB2E009CE98400B4267000417E5F003B
:1057D000D6913900538339009CF439008B5F8400E3
:1057E00028F9BD00F81F3B00DEFF97000F98050069
:1057F000112FEF000A5A8B006D1F6D00CF7E36000F
:1058000009CB2700464FB7009E663F002DEA5F0098
:10581000BA277500E5EBC7003D7BF100F7390700BB
:1058200092528A00FB6BEA001FB15F00085D8D0099
:10583000300356007BFC4600F0AB6B0020BCCF0071
:1058400036F49A00E3A91D005E619100081BE60092
:1058500085996500A0145F008D40680080D8FF0026
:1058600027734D0006063100CA561500C9A87300FB
:105870007BE260006B8CC00000000040FB21F93F20
:10588000000000002D44743E000000809846F83C63
:105890000000006051CC783B00000080831BF03991
:1058A0000000004020257A38000000802282E33684
:1058B000000000001DF36935020000000300000035
:1058C000040000000600000010000020000000009E
:1058D00000000000000000000000000000000000C8
:1058E00000000000000000000000000000000000B8
:1058F00000000000000000000000000000000000A8
:105900000000000000000000000000000000000097
:105910000000000000000000000000000000000087
:105920000000000000000000000000004300504F95
:10593000534958002E00232D302B2000686C4C005A
:10594000656667454647003031323334353637387F
:1059500039414243444546003031323334353637DD
:1059600038396162636465660000202020202020B1
:1059700020202028282828282020202020202020FF
:1059800020202020202020202020881010101010FF
:10599000101010101010101010100404040404044F
:1059A0000404040410101010101010414141414132
:1059B0004101010101010101010101010101010197
:1059C0000101010101101010101010424242424228
:1059D0004202020202020202020202020202020267
:1059E000020202020210101010200000000000004D
:1059F00000000000000000000000000000000000A7
:105A00000000000000000000000000000000000096
:105A10000000000000000000000000000000000086
:105A20000000000000000000000000000000000076
:105A30000000000000000000000000000000000066
:105A40000000000000000000000000000000000056
:105A50000000000000000000000000000000000046
:0C5A60000000000000000000000000003A
:085A6C0080B1FF7F0100000082
:045A7400C501000860
:045A7800A101000880
:105A7C0001000000100000000024F40010000020C1
:105A8C0000000000EC5800080C590008CC58000825
:105A9C0000000000000000000000000000000000FA
:105AAC0000000000000000000000000000000000EA
:105ABC0000000000000000000000000000000000DA
:105ACC0000000000000000000000000000000000CA
